{
  "contractName": "Lottery",
  "abi": [
    {
      "inputs": [],
      "payable": false,
      "stateMutability": "nonpayable",
      "type": "constructor"
    },
    {
      "anonymous": false,
      "inputs": [
        {
          "indexed": false,
          "name": "numberOfPlayers",
          "type": "uint8"
        }
      ],
      "name": "SecondRound",
      "type": "event"
    },
    {
      "constant": false,
      "inputs": [
        {
          "name": "x",
          "type": "bytes32"
        }
      ],
      "name": "enterHash",
      "outputs": [],
      "payable": true,
      "stateMutability": "payable",
      "type": "function"
    },
    {
      "constant": false,
      "inputs": [],
      "name": "runSecondRound",
      "outputs": [],
      "payable": false,
      "stateMutability": "nonpayable",
      "type": "function"
    },
    {
      "constant": false,
      "inputs": [
        {
          "name": "number",
          "type": "uint8"
        }
      ],
      "name": "enterNumber",
      "outputs": [],
      "payable": false,
      "stateMutability": "nonpayable",
      "type": "function"
    },
    {
      "constant": false,
      "inputs": [],
      "name": "determineWinner",
      "outputs": [],
      "payable": false,
      "stateMutability": "nonpayable",
      "type": "function"
    },
    {
      "constant": true,
      "inputs": [],
      "name": "getWinners",
      "outputs": [
        {
          "name": "",
          "type": "address[]"
        }
      ],
      "payable": false,
      "stateMutability": "view",
      "type": "function"
    }
  ],
  "bytecode": "0x608060405234801561001057600080fd5b5033600460016101000a81548173ffffffffffffffffffffffffffffffffffffffff021916908373ffffffffffffffffffffffffffffffffffffffff1602179055506000600460156101000a81548160ff0219169083600281111561007157fe5b0217905550610ac1806100856000396000f3fe60806040526004361061004a5760003560e01c806311f132101461004f578063137da17c1461007d57806333b16d93146100bb5780635a2be044146100d2578063df15c37e146100e9575b600080fd5b61007b6004803603602081101561006557600080fd5b8101908080359060200190929190505050610155565b005b34801561008957600080fd5b506100b9600480360360208110156100a057600080fd5b81019080803560ff1690602001909291905050506102e2565b005b3480156100c757600080fd5b506100d06105d8565b005b3480156100de57600080fd5b506100e76106e3565b005b3480156100f557600080fd5b506100fe6108b3565b6040518080602001828103825283818151815260200191508051906020019060200280838360005b83811015610141578082015181840152602081019050610126565b505050509050019250505060405180910390f35b6000600281111561016257fe5b600460159054906101000a900460ff16600281111561017d57fe5b146101f0576040517f08c379a00000000000000000000000000000000000000000000000000000000081526004018080602001828103825260138152602001807f4d75737420626520666972737420726f756e640000000000000000000000000081525060200191505060405180910390fd5b670de0b6b3a7640000341461026d576040517f08c379a000000000000000000000000000000000000000000000000000000000815260040180806020018281038252600d8152602001807f4d7573742062652031204574680000000000000000000000000000000000000081525060200191505060405180910390fd5b80600160003373ffffffffffffffffffffffffffffffffffffffff1673ffffffffffffffffffffffffffffffffffffffff168152602001908152602001600020819055506001600460008282829054906101000a900460ff160192506101000a81548160ff021916908360ff16021790555050565b60fa8160ff16111561035c576040517f08c379a000000000000000000000000000000000000000000000000000000000815260040180806020018281038252600a8152602001807f312d323530206f6e6c790000000000000000000000000000000000000000000081525060200191505060405180910390fd5b6001600281111561036957fe5b600460159054906101000a900460ff16600281111561038457fe5b146103f7576040517f08c379a00000000000000000000000000000000000000000000000000000000081526004018080602001828103825260148152602001807f4d757374206265207365636f6e6420726f756e6400000000000000000000000081525060200191505060405180910390fd5b600160003373ffffffffffffffffffffffffffffffffffffffff1673ffffffffffffffffffffffffffffffffffffffff168152602001908152602001600020548133604051602001808360ff1660ff1660f81b81526001018273ffffffffffffffffffffffffffffffffffffffff1673ffffffffffffffffffffffffffffffffffffffff1660601b8152601401925050506040516020818303038152906040528051906020012014610511576040517f08c379a000000000000000000000000000000000000000000000000000000000815260040180806020018281038252601d8152602001807f4e756d626572206d7573742062652073616d652061732063686f73656e00000081525060200191505060405180910390fd5b6000808260ff1660ff1681526020019081526020016000203390806001815401808255809150509060018203906000526020600020016000909192909190916101000a81548173ffffffffffffffffffffffffffffffffffffffff021916908373ffffffffffffffffffffffffffffffffffffffff16021790555050600381908060018154018082558091505090600182039060005260206000209060209182820401919006909192909190916101000a81548160ff021916908360ff1602179055505050565b600460019054906101000a900473ffffffffffffffffffffffffffffffffffffffff1673ffffffffffffffffffffffffffffffffffffffff163373ffffffffffffffffffffffffffffffffffffffff161461069b576040517f08c379a000000000000000000000000000000000000000000000000000000000815260040180806020018281038252601b8152602001807f4f6e6c7920746865206f776e65722063616e20646f20746869732e000000000081525060200191505060405180910390fd5b6002600460156101000a81548160ff021916908360028111156106ba57fe5b02179055506106c76109e3565b600260006101000a81548160ff021916908360ff160217905550565b600460019054906101000a900473ffffffffffffffffffffffffffffffffffffffff1673ffffffffffffffffffffffffffffffffffffffff163373ffffffffffffffffffffffffffffffffffffffff16146107a6576040517f08c379a000000000000000000000000000000000000000000000000000000000815260040180806020018281038252601b8152602001807f4f6e6c7920746865206f776e65722063616e20646f20746869732e000000000081525060200191505060405180910390fd5b600060028111156107b357fe5b600460159054906101000a900460ff1660028111156107ce57fe5b14610841576040517f08c379a00000000000000000000000000000000000000000000000000000000081526004018080602001828103825260138152602001807f4d75737420626520666972737420726f756e640000000000000000000000000081525060200191505060405180910390fd5b7f503ccda0ae8566117bbf12e433ac65862712940240e53ca113967eee6dff81ae600460009054906101000a900460ff16604051808260ff1660ff16815260200191505060405180910390a16001600460156101000a81548160ff021916908360028111156108ac57fe5b0217905550565b60606002808111156108c157fe5b600460159054906101000a900460ff1660028111156108dc57fe5b14610932576040517f08c379a0000000000000000000000000000000000000000000000000000000008152600401808060200182810382526021815260200180610a756021913960400191505060405180910390fd5b600080600260009054906101000a900460ff1660ff1660ff1681526020019081526020016000208054806020026020016040519081016040528092919081815260200182805480156109d957602002820191906000526020600020905b8160009054906101000a900473ffffffffffffffffffffffffffffffffffffffff1673ffffffffffffffffffffffffffffffffffffffff168152602001906001019080831161098f575b5050505050905090565b60008060036000815481106109f457fe5b90600052602060002090602091828204019190069054906101000a900460ff1690506000600190505b6003805490508160ff161015610a6c5760038160ff1681548110610a3d57fe5b90600052602060002090602091828204019190069054906101000a900460ff1682189150806001019050610a1d565b50809150509056fe4c6f74746572795374617465206e6565647320746f2062652066696e6973686564a165627a7a7230582092acedfe6aca554f0aa01eee4378de10a84e538bb633604401d3d4aa67ff50660029",
  "source": "pragma solidity ^0.5.8;\n\ncontract Lottery {\n\n    //Rounds of lottery\n    enum LotteryState { FirstRound, SecondRound, Finished }\n\n    mapping (uint8 => address[]) playersByNumber;\n    mapping (address => bytes32) playersHash;\n\n    uint8 winningNumber;\n    uint8[] numbers;\n    uint8 players;\n    address owner;\n    LotteryState state;\n\n    //Constructor\n    constructor () public {\n        owner = msg.sender;\n        state = LotteryState.FirstRound;\n    }\n\n    event SecondRound(uint8 numberOfPlayers);\n\n    //Owner only modifier\n    modifier onlyOwner {\n        require(msg.sender == owner, \"Only the owner can do this.\");\n        _;\n    }\n\n    //Enter hash of guessed number\n    function enterHash(bytes32 x) public payable {\n        require(state == LotteryState.FirstRound, \"Must be first round\");\n        require(msg.value == 1 ether, \"Must be 1 Eth\");\n        playersHash[msg.sender] = x;\n        players += 1;\n    }\n\n    //Owner runs the second round of the lottery\n    function runSecondRound() public onlyOwner {\n        require(state == LotteryState.FirstRound, \"Must be first round\");\n        emit SecondRound(players);\n        state = LotteryState.SecondRound;\n    }\n\n    //Participants enter their original numbers\n    function enterNumber(uint8 number) public {\n        require(number<=250, \"1-250 only\");\n        require(state == LotteryState.SecondRound, \"Must be second round\");\n        require(keccak256(abi.encodePacked(number, msg.sender)) == playersHash[msg.sender], \"Number must be same as chosen\");\n        playersByNumber[number].push(msg.sender);\n        numbers.push(number);\n    }\n\n    //Owner determines winner\n    function determineWinner() public onlyOwner{\n        state = LotteryState.Finished;\n        winningNumber = random();\n    }\n\n    //Gets the winners\n    function getWinners() public view returns (address[] memory) {\n        require(state == LotteryState.Finished, \"LotteryState needs to be finished\");\n        return playersByNumber[winningNumber];\n    }\n\n    //Randomise the winning number by XOR\n    function random() private view returns (uint8) {\n        uint8 randomNumber = numbers[0];\n        for (uint8 i = 1; i < numbers.length; ++i) {\n            randomNumber ^= numbers[i];\n        }\n        return randomNumber;\n    }\n}",
  "sourcePath": "/Users/alexroan/Documents/Projects/Blockchain/Smart Contracts/lottery/contracts/Lottery.sol",
  "compiler": {
    "name": "solc",
    "version": "0.5.8+commit.23d335f2.Emscripten.clang"
  },
  "schemaVersion": "3.0.14",
  "updatedAt": "2019-09-03T19:35:01.364Z",
  "devdoc": {
    "methods": {}
  },
  "userdoc": {
    "methods": {}
  }
}