{
  "contractName": "Lottery",
  "abi": [
    {
      "constant": true,
      "inputs": [
        {
          "name": "",
          "type": "uint256"
        }
      ],
      "name": "numbers",
      "outputs": [
        {
          "name": "",
          "type": "uint8"
        }
      ],
      "payable": false,
      "stateMutability": "view",
      "type": "function"
    },
    {
      "inputs": [],
      "payable": false,
      "stateMutability": "nonpayable",
      "type": "constructor"
    },
    {
      "constant": false,
      "inputs": [
        {
          "name": "x",
          "type": "bytes32"
        }
      ],
      "name": "enterHash",
      "outputs": [],
      "payable": true,
      "stateMutability": "payable",
      "type": "function"
    },
    {
      "constant": false,
      "inputs": [],
      "name": "runSecondRound",
      "outputs": [],
      "payable": false,
      "stateMutability": "nonpayable",
      "type": "function"
    },
    {
      "constant": false,
      "inputs": [
        {
          "name": "number",
          "type": "uint8"
        }
      ],
      "name": "enterNumber",
      "outputs": [],
      "payable": false,
      "stateMutability": "nonpayable",
      "type": "function"
    },
    {
      "constant": false,
      "inputs": [],
      "name": "determineWinner",
      "outputs": [],
      "payable": false,
      "stateMutability": "nonpayable",
      "type": "function"
    },
    {
      "constant": true,
      "inputs": [],
      "name": "getWinners",
      "outputs": [
        {
          "name": "",
          "type": "address[]"
        }
      ],
      "payable": false,
      "stateMutability": "view",
      "type": "function"
    }
  ],
  "bytecode": "0x608060405234801561001057600080fd5b5033600460006101000a81548173ffffffffffffffffffffffffffffffffffffffff021916908373ffffffffffffffffffffffffffffffffffffffff1602179055506000600460146101000a81548160ff0219169083600281111561007157fe5b0217905550610ad7806100856000396000f3fe6080604052600436106100555760003560e01c806311f132101461005a578063137da17c1461008857806333b16d93146100c65780635a2be044146100dd578063d39fa233146100f4578063df15c37e14610149575b600080fd5b6100866004803603602081101561007057600080fd5b81019080803590602001909291905050506101b5565b005b34801561009457600080fd5b506100c4600480360360208110156100ab57600080fd5b81019080803560ff169060200190929190505050610313565b005b3480156100d257600080fd5b506100db610609565b005b3480156100e957600080fd5b506100f2610714565b005b34801561010057600080fd5b5061012d6004803603602081101561011757600080fd5b8101908080359060200190929190505050610898565b604051808260ff1660ff16815260200191505060405180910390f35b34801561015557600080fd5b5061015e6108c9565b6040518080602001828103825283818151815260200191508051906020019060200280838360005b838110156101a1578082015181840152602081019050610186565b505050509050019250505060405180910390f35b600060028111156101c257fe5b600460149054906101000a900460ff1660028111156101dd57fe5b14610250576040517f08c379a00000000000000000000000000000000000000000000000000000000081526004018080602001828103825260138152602001807f4d75737420626520666972737420726f756e640000000000000000000000000081525060200191505060405180910390fd5b66038d7ea4c6800034116102cc576040517f08c379a000000000000000000000000000000000000000000000000000000000815260040180806020018281038252601a8152602001807f4d757374206265206174206c6561737420302e3030312045746800000000000081525060200191505060405180910390fd5b80600160003373ffffffffffffffffffffffffffffffffffffffff1673ffffffffffffffffffffffffffffffffffffffff1681526020019081526020016000208190555050565b60fa8160ff16111561038d576040517f08c379a000000000000000000000000000000000000000000000000000000000815260040180806020018281038252600a8152602001807f312d323530206f6e6c790000000000000000000000000000000000000000000081525060200191505060405180910390fd5b6001600281111561039a57fe5b600460149054906101000a900460ff1660028111156103b557fe5b14610428576040517f08c379a00000000000000000000000000000000000000000000000000000000081526004018080602001828103825260148152602001807f4d757374206265207365636f6e6420726f756e6400000000000000000000000081525060200191505060405180910390fd5b600160003373ffffffffffffffffffffffffffffffffffffffff1673ffffffffffffffffffffffffffffffffffffffff168152602001908152602001600020548133604051602001808360ff1660ff1660f81b81526001018273ffffffffffffffffffffffffffffffffffffffff1673ffffffffffffffffffffffffffffffffffffffff1660601b8152601401925050506040516020818303038152906040528051906020012014610542576040517f08c379a000000000000000000000000000000000000000000000000000000000815260040180806020018281038252601d8152602001807f4e756d626572206d7573742062652073616d652061732063686f73656e00000081525060200191505060405180910390fd5b6000808260ff1660ff1681526020019081526020016000203390806001815401808255809150509060018203906000526020600020016000909192909190916101000a81548173ffffffffffffffffffffffffffffffffffffffff021916908373ffffffffffffffffffffffffffffffffffffffff16021790555050600381908060018154018082558091505090600182039060005260206000209060209182820401919006909192909190916101000a81548160ff021916908360ff1602179055505050565b600460009054906101000a900473ffffffffffffffffffffffffffffffffffffffff1673ffffffffffffffffffffffffffffffffffffffff163373ffffffffffffffffffffffffffffffffffffffff16146106cc576040517f08c379a000000000000000000000000000000000000000000000000000000000815260040180806020018281038252601b8152602001807f4f6e6c7920746865206f776e65722063616e20646f20746869732e000000000081525060200191505060405180910390fd5b6002600460146101000a81548160ff021916908360028111156106eb57fe5b02179055506106f86109f9565b600260006101000a81548160ff021916908360ff160217905550565b600460009054906101000a900473ffffffffffffffffffffffffffffffffffffffff1673ffffffffffffffffffffffffffffffffffffffff163373ffffffffffffffffffffffffffffffffffffffff16146107d7576040517f08c379a000000000000000000000000000000000000000000000000000000000815260040180806020018281038252601b8152602001807f4f6e6c7920746865206f776e65722063616e20646f20746869732e000000000081525060200191505060405180910390fd5b600060028111156107e457fe5b600460149054906101000a900460ff1660028111156107ff57fe5b14610872576040517f08c379a00000000000000000000000000000000000000000000000000000000081526004018080602001828103825260138152602001807f4d75737420626520666972737420726f756e640000000000000000000000000081525060200191505060405180910390fd5b6001600460146101000a81548160ff0219169083600281111561089157fe5b0217905550565b600381815481106108a557fe5b9060005260206000209060209182820401919006915054906101000a900460ff1681565b60606002808111156108d757fe5b600460149054906101000a900460ff1660028111156108f257fe5b14610948576040517f08c379a0000000000000000000000000000000000000000000000000000000008152600401808060200182810382526021815260200180610a8b6021913960400191505060405180910390fd5b600080600260009054906101000a900460ff1660ff1660ff1681526020019081526020016000208054806020026020016040519081016040528092919081815260200182805480156109ef57602002820191906000526020600020905b8160009054906101000a900473ffffffffffffffffffffffffffffffffffffffff1673ffffffffffffffffffffffffffffffffffffffff16815260200190600101908083116109a5575b5050505050905090565b6000806003600081548110610a0a57fe5b90600052602060002090602091828204019190069054906101000a900460ff1690506000600190505b6003805490508160ff161015610a825760038160ff1681548110610a5357fe5b90600052602060002090602091828204019190069054906101000a900460ff1682189150806001019050610a33565b50809150509056fe4c6f74746572795374617465206e6565647320746f2062652066696e6973686564a165627a7a72305820ce28271618e6635a915f4028af6c3f2d60942ba768a9ded6284059a7803054ed0029",
  "source": "pragma solidity ^0.5.8;\n\ncontract Lottery {\n\n    //Rounds of lottery\n    enum LotteryState { FirstRound, SecondRound, Finished }\n\n    mapping (uint8 => address[]) playersByNumber;\n    mapping (address => bytes32) playersHash;\n\n    uint8 winningNumber;\n    uint8[] public numbers;\n    address owner;\n    LotteryState state;\n\n    //Constructor\n    constructor () public {\n        owner = msg.sender;\n        state = LotteryState.FirstRound;\n    }\n\n    //Owner only modifier\n    modifier onlyOwner {\n        require(msg.sender == owner, \"Only the owner can do this.\");\n        _;\n    }\n\n    //Enter hash of guessed number\n    function enterHash(bytes32 x) public payable {\n        require(state == LotteryState.FirstRound, \"Must be first round\");\n        require(msg.value > .001 ether, \"Must be at least 0.001 Eth\");\n        playersHash[msg.sender] = x;\n    }\n\n    //Owner runs the second round of the lottery\n    function runSecondRound() public onlyOwner {\n        require(state == LotteryState.FirstRound, \"Must be first round\");\n        state = LotteryState.SecondRound;\n    }\n\n    //Participants enter their original numbers\n    function enterNumber(uint8 number) public {\n        require(number<=250, \"1-250 only\");\n        require(state == LotteryState.SecondRound, \"Must be second round\");\n        require(keccak256(abi.encodePacked(number, msg.sender)) == playersHash[msg.sender], \"Number must be same as chosen\");\n        playersByNumber[number].push(msg.sender);\n        numbers.push(number);\n    }\n\n    //Owner determines winner\n    function determineWinner() public onlyOwner{\n        state = LotteryState.Finished;\n        winningNumber = random();\n    }\n\n\n    function getWinners() public view returns (address[] memory) {\n        require(state == LotteryState.Finished, \"LotteryState needs to be finished\");\n        return playersByNumber[winningNumber];\n    }\n\n    function random() private view returns (uint8) {\n        uint8 randomNumber = numbers[0];\n        for (uint8 i = 1; i < numbers.length; ++i) {\n            randomNumber ^= numbers[i];\n        }\n        return randomNumber;\n    }\n}",
  "sourcePath": "/Users/alexroan/Documents/Projects/Blockchain/Smart Contracts/lottery/contracts/Lottery.sol",
  "compiler": {
    "name": "solc",
    "version": "0.5.8+commit.23d335f2.Emscripten.clang"
  },
  "schemaVersion": "3.0.14",
  "updatedAt": "2019-09-03T19:08:57.775Z",
  "devdoc": {
    "methods": {}
  },
  "userdoc": {
    "methods": {}
  }
}